:100000000C9481020C949E020C94B9020C949E02F2
:100010000C949E020C949E020C94962A0C949E02C0
:100020000C949E020C949E020C949E020C949E02D0
:100030000C949E020C949E020C94202A0C949E0216
:100040000C949E020C949E020C949E020C949E02B0
:100050000C949E020C949E020C949E020C949E02A0
:100060000C949E020C949E028C0B8C0BBC0BBC0B54
:10007000610C7F0CB90DB90D8A0CFD0C100D100D23
:1000800019142F14391472148914A014B614C71437
:1000900005150A15351559158E1591159E15AA15B4
:1000A000BF15F61507162C164E16FD377A585A004E
:1000B0000004E6D6B4460200210116000000742FA9
:1000C000E5A3E0011A00B15D003D8889C65436C33E
:1000D000174FE4E46873BE9BC85ADE4DB47A691EBC
:1000E0005FF3723715DA2801E82010CF6972682BA8
:1000F0009B80AF9CF32E33F0B7B99B2B1092B80BBB
:100100002E7E41671E6FFB3BD9D6AC03FC73D882B1
:100110007E4CC9D736A96D932C7A3D56C14C9B7243
:10012000FAA4BFA88E51ED4BE3D5082EF2FAC2C84F
:10013000684E12EEF7A063E1017BEF8F87F720573F
:1001400063CF33FBE0DF84C31A5A34B889035442C7
:10015000E22FE9D784AD333312BC7EA598951F14E6
:100160007DCDE26E606DC2AED2A6AF7152E257F69F
:1001700014D33B36D053F3E7C3E80000000062A875
:10018000535A26B818620001CD019B020000CC42F0
:10019000863AB1C467FB020000000004595AAA0065
:1001A000A900BC00BB000153AC00AE00AB0049008D
:1001B0000153AC00AE00AB00490001000100DE01BC
:1001C000601C921C000002000200DA01601C921CFC
:1001D000000003000100DF01601C921C000004000D
:1001E0000200C401601C921CD91B05000100E00143
:1001F000601C921C000006000200C601601C921CDC
:10020000000007000200DC01601C921C00000800D6
:100210000100E101601C921C000009000200C801FD
:10022000601C921CB41B0A000200CA01601C921CD4
:10023000B41B0B000200CC01601C921CB41B0C0010
:100240000200CE01601C921CB41B0D000200D00104
:10025000601C921CB41B0E000200D201601C921C98
:10026000B41B0F000200D401601C921CB41B1000D0
:100270000200D601601C921CB41B11000200D801C0
:10028000601C921CB41B12000200E201601C921C54
:10029000000013000200E401601C921C0000140026
:1002A0000100E601601C921C000015000000000027
:1002B000371BE21B000005010902A10185020901AB
:1002C000A1000509190129081500250195087501E6
:1002D00081020501093009311581257F95027508D4
:1002E000810609381581257F950175088106050C61
:1002F0000A38021581257F950175088106C0C00561
:10030000010980A101850319012AB700150126B74B
:1003100000950175108100C0050C0901A10185043B
:1003200019012AA002150126A0029501751081006D
:10033000C00660FF0961A1010962150026FF009552
:1003400020750881020963150026FF0095207508B5
:100350009102C005010906A101050719E029E71569
:100360000025019508750181029501750881030535
:1003700007190029FF150026FF0095067508810062
:100380000508190129059505750191029501750367
:100390009103C01C037600690061006C003A00669E
:1003A0000036003400630032006200330063000056
:1003B00000100350006C006100790065007200219C
:1003C0000000001C036A006F0068006E0062006F8E
:1003D00000790073006D006F006F0074006800000A
:1003E000000403090409025B00030100A0FA0904E8
:1003F0000000010301010009210101000122400068
:100400000705810308000109040100020300000040
:1004100009210101000122220007058403080001CF
:10042000070504030800010904020001030000009D
:10043000092101010001227B000705830308000157
:100440001201100100000008A020E2423101010267
:100450000301000000000000000000000000000098
:10046000000000000000000000000000000000008C
:100470000000000000007E0F00D4FFFFFFC7000057
:10048000007800000000000000002A2B2800000077
:100490000000000000000000000000000029000033
:1004A00000002C1E3420212224342627252E362D10
:1004B0003738271E1F202122232425263333362EAA
:1004C00037381F0405060708090A0B0C0D0E0F101C
:1004D0001112131415161718191A1B1C1D2F313061
:1004E000232D350405060708090A0B0C0D0E0F1005
:1004F0001112131415161718191A1B1C1D2F313041
:10050000354C11241FBECFEFD8E0DEBFCDBF11E0C8
:10051000A0E0B1E0ECEBF6E602C005900D92AA3641
:10052000B107D9F725E0AAE6B1E001C01D92AE37C8
:10053000B207E1F70E940E0E0C945C330C9400009D
:10054000A82FB92F80E090E041E050EA609530E0BC
:1005500009C02D9182279795879510F084279527BC
:10056000305EC8F36F5FA8F30895EADF8D939D9323
:100570000895CF93CFB7CF93DF93C3954B9BE9F704
:100580004B9B10C04B9B0EC04B9B0CC04B9B0AC09F
:100590004B9B08C04B9B06C0C0913205C395C093CE
:1005A00032058EC06F93C0915805DD27C55ADA4FCA
:1005B0002F9365E54B9B03C02F916F91E1CF0F9374
:1005C0001F934F9320E040E15F9309B10C7003FB50
:1005D00027F93F9350E03BE039C01C7040642F770F
:1005E000012F5F5F1EC0406819B11C702F775250F9
:1005F0001FC0406409B12F770C70D1F15F5F00C05C
:1006000023C0406219B12F771C7091F15F5F00C069
:1006100025C00C701027515012F45D5F000011507E
:1006200027952C3F19B1C8F61C700127015027955A
:100630002C3FC8F64227499309B10C7010274F731D
:10064000115027952C3FA8F64695469519B11C7078
:1006500079F00127015027952C3F98F66B5A60F3EB
:10066000315009B1B0F600C012E01CBB00271CC01D
:100670003B503195C31BD04012E01CBB0881033CAA
:1006800021F10B3411F1209156051981110F12132C
:10069000EDCF4A81441F093679F10D3211F0013E48
:1006A00029F74F7009F0042F00937D053F915F916A
:1006B0004F911F910F912F916F91CCB3C1FD5DCFE1
:1006C000DF91CF91CFBFCF91189520917D05222347
:1006D00069F310915905112309F049C034300AF427
:1006E00048C03093590520935705109158053BE0B9
:1006F000311B309358053DC0009159050130BCF5C0
:100700000AE54F7049F430911A0134FD33C000936B
:100710001A01C3E3D5E032C0433059F0443091F0C0
:1007200030913E0534FD26C000933E05CFE3D5E071
:1007300025C03091710534FD1DC000937105C2E7DD
:10074000D5E01CC030914A0534FD14C000934A0521
:10075000CBE4D5E013C0052710E000C000000BB9C2
:100760001AC0052710E0221F1DC010E021C04AE575
:1007700002C032ED432FC4E1D0E032E01AB11C6078
:100780005B9A0BB11AB95CE020E865E320FF05270E
:100790000BB9279517951C3FF0F66695B8F7B1F79A
:1007A00020FF05270BB9279517951C3FD0F62795F5
:1007B000179517FF052700001C3F0BB9B0F62991CC
:1007C0003A9519F7037F10915A05110FC651D04081
:1007D0000BB911F01093560512E01CBB08601AB15A
:1007E000137F402F437F54E05A95F1F70BB91AB9A4
:1007F0004BB95CCFACE0B0E0E0E0F4E00C9408333F
:100800007C01DC0113964D915C91149711966C91CB
:1008100011978C910E94FF1D81110C940A0E61E0CA
:10082000C7010E94AB2F8C01F70182818823E1F080
:1008300080911504909116040097B1F008171907DC
:1008400099F0FEE08F9FC0011124FC01E253FD4F9F
:1008500020812460208387539D4FDC010D931C93DE
:100860000E94392B10921404F7013280332009F4CE
:1008700086C6C80182519F45409708F0B3C08FEFEC
:1008800093E00E948932811167C66EEED62ED00E9B
:1008900003E711E0DD2071F00115F4E01F0709F412
:1008A0005BC6C8010E948932811101C0DA940F5FD2
:1008B0001F4FF0CF19821A821B821C82AA24AA948D
:1008C00068012FEFC21AD20AC8010E9489328983B7
:1008D0001A82882309F440C6813009F07EC048019D
:1008E00032E0830E911CC6010E948932B82E8A83A1
:1008F000882309F431C68FEF8B0D833060F46801D3
:1009000043E0C40ED11CC4010E9489328B83811143
:1009100064C08601D5CF8BEF8B0D833078F538011D
:1009200053E0650E711CC4010E9489328B838111D2
:1009300002C06301EECF680184E0C80ED11CC30180
:100940000E9489328C83882321F32B813C812130C2
:100950009FEF390718F0922F80E001C0C901A6E08F
:10096000BA1631F0B7E0BB1631F00E94F423D1CFB4
:100970000E94CE23CECF0E945423CBCFE4E0BE16FC
:1009800011F06401C6CFC4010E948932B82E6801FB
:10099000F4E0CF0ED11CC80103960E948932BB201F
:1009A00009F4DAC5882309F4D7C5282F30E021508F
:1009B0003109A29EA001A39E500D11248B2D90E021
:1009C0000197840F951F019708F4A3CFAFE9BFE00B
:1009D0001197F1F700C00000F6CFCE0101960E94FA
:1009E000862797CF0031EFE51E0731F00131FFE593
:1009F0001F07B1F482E001C081E00E9473170E94DA
:100A00007A27AAC5680127E5D21A3FEFC316D10499
:100A100009F008F4C3C5D70112963C903320D1F0F9
:100A20000F35BDE51B0761F00036EDE51E0761F0EF
:100A30000E35FDE51F0771F480910001811104C09E
:100A400081E08093000188C51092000180E00E943F
:100A5000701D82C580910001811108C0C8019755A1
:100A60008F3F910509F008F47AC1CAC1480120EE10
:100A7000821A910820902D0580916F01282A80917B
:100A8000A301282A38E08316910480F49801277086
:100A9000332781E090E001C0880F2A95EAF73320E0
:100AA00011F0282A18C08095282215C0332009F497
:100AB00016C110936D0100936C010E94552A60933A
:100AC0009C0270939D0280939E0290939F021092CD
:100AD000A4021092A302D7018D919C910E94371716
:100AE00021E030E0F90102C0EE0FFF1F8A95E2F726
:100AF000FC87EB872091A5023091A60238872F83CF
:100B000040916C0150916D015A8749871D82432C99
:100B1000512C5D81E52FF0E0EE0FFF1FE657FC4FF3
:100B2000C080D180C114D10409F4F0C0211005C0E7
:100B3000D60112968C918111CEC0F601838190E08E
:100B40002B853C8582239323892B09F4C4C080859F
:100B5000982F977009F487E038E08316910440F4E9
:100B6000332019F081FD09C0B6C082FD06C0B3C0B4
:100B7000332009F4B0C080FFAEC0D601AD90BC9068
:100B80000A151B0519F4332009F4A5C0EF81F88577
:100B9000CE16DF0609F49FC0D6011D96ED91FC919B
:100BA0001E97309721F08081882309F494C0622D2C
:100BB000C6010E94DF1D882309F48DC00A151B059C
:100BC00011F4320102C0612C712CB62DB170BE83BC
:100BD00081E0A114B10441F0B11106C0E985FA85A4
:100BE000AE16BF0609F080E080FF75C080E00E946D
:100BF000701DD092A602C092A50281E08093A2024D
:100C0000D60115968C918093A002BE81B11113C0BC
:100C1000AB2889F0F601808191819C012450310933
:100C2000213A310530F4682F83E991E00E94BF2A10
:100C300002C00E94CA17D6011696AD90BC901797B5
:100C4000C5019A9581159F4110F4E0EEBE2255240E
:100C50005394C5010197803B9D4508F0512CD60166
:100C60001996ED91FC911A97309739F01B966D917A
:100C70007C911C9781E009955822552029F1F601B5
:100C8000868197810E940F328093A102C501F8E00E
:100C90008F16910418F40E941F1D16C00497813A04
:100CA000910530F46A2D83E991E00E94CC2A0EC0B0
:100CB0000E94B52E8FE39CE90197F1F700C0000078
:100CC0008A2D0E94FF1702C00E94B52E91E069266E
:100CD00060FE73C1C3CEAD81AF5FAD831ACF80918B
:100CE0006C0190916D010817190781F410926D0144
:100CF00010926C0110929C0210929D0210929E0222
:100D000010929F021092A4021092A3028091A50259
:100D10009091A602009709F4A1CEB8E08B16910439
:100D200038F4622D0E94DF1D811198CE81E014C03D
:100D3000FC01208131810217130729F4311006C00C
:100D40001092A20208C0332009F488CEDC01189664
:100D50008C9185FD83CE80E00E94701D7FCE58016E
:100D6000BB24BEE00B9FF00111249F0127533D4F90
:100D70006901D70112969C911297E253FD4F808131
:100D800090FB80F9808312969C919923A1F10E9497
:100D9000612A9093780180937701F60182818F5FB9
:100DA0008283909114048091A301892B8383809185
:100DB0002D0584830680F781E02D309739F0D60128
:100DC0001C966D917C911D97C60109958EE08A9DB8
:100DD000F0018B9DF00D1124E253FD4F808181FFC6
:100DE00003C090E080E002C0902F812F9093150403
:100DF0008093160405C081FF03C0C9010E941F2B08
:100E00008091DF0180FF9BC00E94612A6C01F70185
:100E100082818823D9F18091170182FF08C029E7D8
:100E200031E040E0B60180E090E00E94841F0B3189
:100E3000FCE51F0779F00C312CE5120789F00A3127
:100E40003CE51307A1F480911701982F909590FB32
:100E500080F909C08091170181608093170107C054
:100E6000809117018E7F809317010E94451FC80152
:100E70009056811540E2940720F0905E81159041D4
:100E800080F51092EB011092EA0159C0013E110564
:100E900021F4809117018F7E06C0053E110531F4C3
:100EA000809117018F7D809317011BC0C801905658
:100EB0008115A0E29A0720F0905E8115904188F498
:100EC0008091170182FF3BC08091E10181FD37C015
:100ED00029E731E040E0B60180E090E00E94841F05
:100EE0002EC08091170180FF2AC0F701828108324D
:100EF000110538F40E311105B8F40430110578F4F9
:100F00001CC00933110538F40D32110590F40B3271
:100F1000110579F012C00436110559F00EC09091F8
:100F2000DF0194FD0AC01EC29091DF0193FD05C050
:100F300019C29091DF0192FF15C2811141C0033F98
:100F4000FCE51F0709F469C008F06DC0083D3CE5E9
:100F5000130709F45CC0093D4CE5140709F47FC090
:100F6000073D5CE5150709F44CC0F701228121110A
:100F70007FC00631BCE51B0709F0CFC28091A301F9
:100F8000982F9A7A3091DE0130FDA0C231FDA4C2C3
:100F900032FDA8C233FDACC2222309F4B2C281E003
:100FA000911101C080E080936E01992309F4A7C2DA
:100FB00065E383E991E00E94CC2A0E94B52ECCC261
:100FC0001092EB011092EA01033FFCE51F0729F1A3
:100FD00070F4083D3CE51307D1F0093D4CE51407DA
:100FE000F1F1073D5CE5150709F042C00AC0053F75
:100FF0008CE5180719F1E0F0063FACE51A0749F156
:1010000037C006E221EE41EE67ED7CE52DC007E238
:1010100025EE45EE68ED7CE527C006E221EE40EEC8
:1010200063EF7CE521C0053F8CE5180739F060F4DB
:1010300007E225EE44EE64EF7CE516C006E221EE01
:1010400042EE65EF7CE510C0063FACE51A0709F0FB
:101050008CCF07E225EE46EE66EF7CE505C008E2A0
:1010600021E045EE69ED7CE5C7010E94AD1C74C22C
:101070001092A9020330FDE51F0758F40A3F2CE542
:101080001207C0F4C80182509C45449708F01CC266
:1010900011C0053A3DE5130769F030F401365DE50E
:1010A000150709F011C206C0C8018D5A9D45039766
:1010B00008F00AC20E949C2D9093A2018093A10186
:1010C00002318CE5180709F40CC108F04DC0093055
:1010D000ACE51A0709F4D9C008F50530ECE51E07A0
:1010E00009F4C0C080F403302CE5120709F4B1C044
:1010F00008F0B5C002304CE5140709F02AC1809110
:10110000A1018160A9C007305CE5150709F4B5C0ED
:1011100008F0B7C08091A10180619EC00D309CE5B0
:10112000190709F4C8C058F40B30BCE51B0709F4D3
:10113000B6C008F0BCC08091A1018860ACC00F307F
:10114000FCE51F0709F4C5C008F4B8C000313CE550
:10115000130709F4C2C001314CE5140709F0F9C0C6
:101160008091A1018F7B78C00F3F5CE5150709F4E2
:10117000C3C098F50A3F9CE5190709F477C0C0F48D
:101180000431BCE51B0709F4C6C008F4B0C0053142
:10119000FCE51F0709F0DDC08091A10182FB222739
:1011A00020F991E0922790FB82F990FB83F954C0DB
:1011B0000C3F2CE5120709F485C008F45AC00D3F16
:1011C0004CE5140709F481C00E3F5CE5150709F0F2
:1011D000C0C08091A201826060C001368DE5180711
:1011E00009F4ABC070F40130ADE51A0709F49FC0F3
:1011F00008F487C00230EDE51E0709F0AAC060E0E0
:1012000097C00D3AFDE51F0701F160F4053A3DE591
:10121000130709F09EC08091A101982F909590FB33
:1012200080F91AC00E3A4DE51407E9F10F3A5DE571
:10123000150709F08EC08091A20183FB222720F9B7
:1012400091E0922790FB83F982C08091A20188608F
:101250007EC08091A10182608093A1017AC08091BB
:10126000A10119C08091A1018860F6CF8091A201EF
:1012700014C08091A20182606AC08091A101806245
:10128000EBCF8091A1018064E7CF0E949F178091EE
:10129000A1018068E1CF8460DFCF816058C0809178
:1012A000A1018E7FD9CF8091A201877F50C080910C
:1012B000A1018D7FD1CF8091A1011CC08091A1019E
:1012C000877FCACF8091A2011AC08091A2018D7F31
:1012D0003EC08091A1018F7EBFCF8091A1018F7D03
:1012E000BBCF0E949F178091A1018F77B5CF8091CE
:1012F000A101877F8B7FB0CF8091A2018D7F8E7FF0
:1013000026C08091A201982F909591708E7F892B95
:1013100090FB81F91CC00E949F178091A10187FB5F
:10132000222720F991E0922790FB87F995CF61E081
:101330008EE090E00E9497320CC08091A10184FB66
:10134000222720F991E0922790FB84F985CF8093A2
:10135000A2018091A1019091A2010E948E2D0E9474
:101360009F17FAC0882309F4A8C090912D05809199
:10137000A301892B8D7F79F11092EB011092EA0184
:101380008091DF0181FD27C0F80143E0F695E795E4
:101390004A95E1F7EE71FF27EC55FE4F98012F704B
:1013A000332781E090E002C0880F991F2A95E2F769
:1013B000809590952081318182239323918380832E
:1013C000A70160E0C8010E94641F80912D058D7FF8
:1013D0000E94232E6EC088E0F701A9E7B1E00190DA
:1013E0000D928A95E1F710927B0110927D01109287
:1013F0007C018091EA019091EB0108171907E1F552
:101400008091DF0185FF38C09091170191FF02C0E4
:1014100086FF32C08091E8019091E9015601A81A37
:10142000B90AB701C8010E941E23A816B90620F503
:101430008091A30181FF08C0809117018061809392
:10144000170182E00E943E2E8091A30185FF08C013
:101450008091170180628093170180E20E943E2EE6
:101460006091170166956170A7018091EA019091E2
:10147000EB010E94641F70C080912D059091A30123
:10148000982B969591702091170190FB21F920934C
:1014900017018D7F0E94232E1093EB010093EA0128
:1014A000D092E901C092E801809117018460809395
:1014B000170182E00E94522E4FC0970140E0B60112
:1014C000C8010E94841F48C021E053CD482F4474B6
:1014D00009F45CCD90E05ACD482F417109F458CD04
:1014E00090E056CD482F487809F454CD90E052CD85
:1014F000827209F451CD222321F010926E0169E22B
:1015000058CD80916E01882311F065E301C069E236
:1015100083E991E00E94BF2A50CDD70112968C91A9
:10152000882309F4A5C00A358DE5180709F49BC086
:1015300008F085C00115ACE51A0709F079C00E94D2
:101540009F173FEF44E35CE0315040405040E1F7EB
:1015500000C000000E940B2A80912A05877009F4C0
:1015600059C3D70112968C91882309F453C38091F3
:10157000A20182FF4FC382E00E94522E4BC3003172
:10158000FFE51F0721F481E00E94661738CA013188
:101590002FE5120709F036CA82E0F6CF6FEB72E052
:1015A0008C2D0E94A621892B09F035CA8EE08C9DD6
:1015B000F0018D9DF00D1124E753FD4F82818130A4
:1015C000E1F48091BF029091C002892B09F423CAF3
:1015D0008091C1029091C202892B09F41CCA8091AA
:1015E000C3029091C402892B09F015CA8091C502EB
:1015F0009091C602892B59F00ECA823009F00BCAAD
:101600008091C3029091C402892B09F404CA2EE090
:101610002C9DC0012D9D900D1124FC01E253FD4F26
:1016200020812E7F208387539D4F0E94392BF3C941
:101630000E3DBCE51B07E1F40E94AD2D09C00C3541
:10164000EDE51E0741F088F0073A2DE5120781F419
:101650000E94F93181CF8091A20182FB882780F915
:1016600091E0892703C081E001C080E00E946F2ED5
:10167000F701868197810097B9F4F7018281008193
:101680001181882349F0C8010E94FB16D82E682FCB
:10169000C8010E944B1704C0C8010E943717D82EFA
:1016A000B8018D2D0E94C8200E94F22B182F092FFF
:1016B000D7011296BC9012971596CC90C2943FE039
:1016C000C32280912A058770B9F0BB20A9F0892F29
:1016D000807F803421F080E2810F883068F0809133
:1016E000A20182FF09C082E00E94522E80912A0549
:1016F0008770AA24A3948111A12C902E92942FE09C
:101700009222892D90E08C30910508F032C2FC01C4
:10171000EC5CFF4F0C94FB32902F9F70802F807FEA
:10172000D92E19F0D29490EFD922BB20A9F0DD2058
:1017300009F4FFC180E2810F883010F0111104C05C
:101740008D2D0E94452E05C080911404D82AD09278
:1017500014040E94B52EEDC1812F0E94CA17DD200E
:1017600009F407C280E2810F883068F1112359F132
:101770008D2D0E94372E2AC0902F9F70802F807F42
:10178000D92E803219F0D29480EFD822112321F083
:10179000113009F468C073C08091A20182FD19C0A4
:1017A000BB2059F0DD2029F08D2D0E94452E0E948E
:1017B000B52E80E00E94FF17DCC180E00E94CA17AE
:1017C000DD2009F4D6C18D2D0E943E2E0E94B52E3B
:1017D000D0C1BB2011F1CC20E1F0B1E0CB1206C0AA
:1017E00080912D058D290E94232EC3C18091E00197
:1017F000823078F0C8120DC00E94182E90916F01AF
:101800008D2D892B891380936F018D2D0E94C31715
:10181000B0C180912D058D29F9CFCC20F1F08091B8
:10182000E001E1E0CE1214C0823008F4A2C1809140
:10183000A3018D2109F49DC10E94182E90916F0182
:101840008D2D80958923891751F080936F0107C0F2
:10185000823018F0C81609F48CC10E94182E8D2D04
:101860000E94BC1786C18091E601BB2021F08C1537
:1018700008F47FC1CACFC81608F07BC1F0CFBB20E7
:10188000E9F0CC2011F220E0D7014C9111965C9147
:10189000119712966C91129713967C911397149648
:1018A0008C910E94882F8091E10181FD42C1F70156
:1018B000858180FF3EC18F708583A7CFC11042C153
:1018C000CECF802F86958695837019F0813061F098
:1018D00050C1BB2021F0812F902F937002C080E077
:1018E00090E00E94FC2A4BC1BB2021F0812F902F59
:1018F000937002C080E090E00E94E62A40C1812FF0
:10190000BB2019F00E943A2602C00E942D250E9499
:10191000032535C1802F8370A1F5B1102EC1412F51
:10192000429546954770440F440F212F2F7030E0A9
:10193000C901042E01C0880F0A94EAF714FF08C0F9
:101940002FE030E001C0220F4A95EAF7209501C050
:1019500020E0302F369536953370323069F040F400
:1019600040912E05313019F0822B842302C0842B44
:10197000822B0E947F1701C1282B80912E05822780
:10198000F8CFBB2019F0802F817001C08695882385
:1019900009F4F3C0412F429546954770440F440F18
:1019A000212F2F7030E0C901042E01C0880F0A9446
:1019B000EAF714FF08C02FE030E001C0220F4A957B
:1019C000EAF7209501C020E0302F36953695337028
:1019D000323051F070F44091DD04313019F0822B37
:1019E000842308C0842B05C0282B8091DD04822726
:1019F00001C0822B0E946117C0C0F02FFF70DF2E44
:101A0000BB2039F08F2F0E947317812F0E94C317BC
:101A1000B4C0812F0E94BC178D2D0E946617ADC0E7
:101A2000123F11F128F4103F41F0113FA9F17DC0A0
:101A3000133F01F1143F61F178C08091E601BB20B2
:101A400021F0C81608F095C003C08C1508F491C0A9
:101A5000202F2F7181E090E001C0880F2A95EAF7CE
:101A60009091DD0489270FC0802F8F71BB2009F46E
:101A700064C07BC0BB2051F081E0902F9F7101C0FA
:101A8000880F9A95EAF70E94611773C080E0FBCF38
:101A90008091A20182FD06C0802F8F71BB2009F4C6
:101AA00064C04BC08091E001823040F1BB20C1F0A6
:101AB00090912A059770943039F40E944B2E802F14
:101AC0008F710E94661754C0C81608F051C0202FAD
:101AD0002F71D22E822F0E94731763E08D2D07C0C5
:101AE000C81640F00E944B2E64E0802F8F710E9438
:101AF000842E3EC081E00E94522E3AC0BB2059F095
:101B0000302F3F71D32E832F0E94731763E08D2DEA
:101B10000E94842E2EC081E00E94522E41E04C157E
:101B200040F582E00E94522E24C0BB2049F0CC2018
:101B300011F0812F3FCE802F8F710E94731719C033
:101B4000CC2089F0193329F48091E4019091E501CA
:101B500004C08091E2019091E3010E94791F812FDE
:101B60000E94CA1706C0802F8F710E94661701C09D
:101B7000A12C88EF890D843010F40E94122B812F44
:101B8000902F0E948417811105C01092710110924C
:101B9000700125C0BB2019F0C110F7CF20C0C110C3
:101BA000F4CF20E0D7014C9111965C9111971296D9
:101BB0006C91129713967C91139714968C910E94B6
:101BC000882F8091E10183FFE0CF80917001909197
:101BD00071010297D1F6812F0E945318D6CFAA2007
:101BE000A9F080912A0580FD11C0F7011282859528
:101BF000859585950E947317C7010E94FA0380910D
:101C00002A058595859585950E94661760E0C70130
:101C10000E94AB2F2C96E2E10C942433A4E3B0E0B5
:101C2000E4E1FEE00C9409330E94612A90938C0158
:101C300080938B0190E080E80FB6F8948093610068
:101C4000909361000FBE81E69BE290936B018093BD
:101C50006A010E943C230E94DA220E9466220E94AE
:101C6000422080916900886080936900E99A8BE442
:101C700080933F058093720580934B058AE580939E
:101C80003E058093710580934A05539A80E0815008
:101C900041F0A895EFE9FFE03197F1F700C00000AF
:101CA000F6CF5398789482E084BD93E095BD9AEF87
:101CB00097BD80936E000E94EA24811102C00E94A9
:101CC000DA24A3E2B1E041E050E08D918F3F29F4A6
:101CD000F1E0A832BF07C9F715C0E82FE295EF7011
:101CE000F0E021A18F70BA0102C0660F771F8A95BC
:101CF000E2F7CB01962F9095922391A392A1892B85
:101D000082A3E6CF10928A011092720180E090E0E7
:101D10000E949132883E9E4F21F40E94EA24811154
:101D200002C00E94AD2D82E090E00E948932809333
:101D300075010E949C2D9093A2018093A1010E94A5
:101D4000A62B8FEF96E7E1E081509040E040E1F76D
:101D500000C000000E94A62B80918A0180FF08C06D
:101D60006FEF7FEF80E090E00E94B5320E940B2A77
:101D700083E090E00E9489320E947F1781E0809387
:101D800083012198299A22982A9A8FE891E0019755
:101D9000F1F700C0000030918301E4E8F1E020E0B9
:101DA000231761F083B1869581701A9B02C092E07F
:101DB00001C090E0892B81932F5FF2CF81E091E009
:101DC00090931A04809319049FEFE0E7F2E091509A
:101DD000E040F040E1F700C0000033243A9466246C
:101DE0006394712C9E012F5F3F4F2901AE01455F27
:101DF0005F4F5AAB49AB809132058823A1F0109216
:101E000032050E94612A90938C0180938B0180910E
:101E10001E04882309F441C010921E040E949F17DB
:101E20000E94122B11C080911E04811111C080915B
:101E30008B0190918C010E94462A069728F081E040
:101E400080931E040E946D2A80911E04882329F12C
:101E500081E080931E040E946D2A0E94A62B80912F
:101E60008A01882341F2F8942AB15B9A822F8C6010
:101E70008AB99BB18CE098279BB93FE748E351E0D2
:101E8000315040405040E1F700C000009BB189272D
:101E90008BB92AB95B987894AECF0E943228809192
:101EA000B504882309F4CDC280913E0584FFC9C2E0
:101EB0000E94A62BE0908A01F0907601FE24F1F4B6
:101EC0000E94612A8C01809173019091740108171E
:101ED0001907A9F13FA238A619A60E94612A8160BC
:101EE000782F9BA78AA74FA158A569A58BA50E940B
:101EF000B92F109374010093730121C010E001E029
:101F0000802F8F21A1F01CA71DA691E0802F8E218C
:101F100009F490E09EA70E94612A8160782F98AB17
:101F20008FA74CA55DA56EA588A90E94B92F1F5F3C
:101F3000000F153029F7E09276010E94552A809112
:101F4000A3029091A402892B09F43EC0409198020B
:101F50005091990260919A0270919B022FB7F89468
:101F600080911F0490912004A0912104B09122043B
:101F70002FBF841B950BA60BB70B40919402509179
:101F80009502609196027091970284179507A607B3
:101F9000B707D0F08091A3029091A4020E9456321C
:101FA0001092A4021092A302109298021092990229
:101FB00010929A0210929B02109294021092950233
:101FC0001092960210929702809115049091160437
:101FD000892B49F180917701909178010E94462ADE
:101FE0008C0188E0E9A9FAA911928A95E9F7BE0166
:101FF000655F7F4F80911504909116040E941E2307
:102000008017910780F480911504FEE08F9FC00136
:102010001124FC01E253FD4F208122FD04C08753AF
:102020009D4F0E94392B80911801882341F18091A6
:10203000920290919302009711F10E94462A2091FA
:10204000EC013091ED0128173907C8F49091900206
:1020500080919102981759F00E94AC1E1092ED01E8
:102060001092EC01109293021092920208C00E940A
:102070003C1E10929302109292020E948C1E80913C
:10208000DF0180FF1EC08091170182FF1AC00E94ED
:10209000612A2091E8013091E901AC01421B530B08
:1020A00020911501309116014217530750F029E78E
:1020B00031E041E0BC018091EA019091EB010E9486
:1020C000841FD12CC12C1DEFB12EAA24A3940CEF98
:1020D000902E80918301D81608F0A2C0ED2CF12C2F
:1020E000E3B1E695E1701A9B02C092E001C090E076
:1020F0008E2F892BD701AC57BE4FEC912E2F23701A
:1021000030E0482F082E000C550B2417350709F432
:1021100085C0EE0FEE0FE82BEC93EF70F0E0E85D7A
:10212000FE4F87010E571E4F9081F8018081890F65
:102130008083843094F1F701EF57FE4F80818F5FE9
:1021400080830E94612ADD8E9E8EAF8E8160782F03
:1021500099A388A34D2D5CEF61E089A10E94B92F5E
:102160008FE39FE10197F1F700C000000E94612A10
:10217000DAA29BA21CA28160782F9EA38DA34D2D75
:102180005CEF60E08EA10E94B92FEFE3FFE1319791
:10219000F1F700C0000021E001C020E0F8018081DB
:1021A0008D3F8CF5F701EF57FE4F80818150808382
:1021B0000E94612ADB8ABC8AAD8A8160782F9F8B5E
:1021C0008E8B4D2D5DEF61E08F890E94B92F8FE3DB
:1021D0009FE10197F1F700C000000E94612AD88EAC
:1021E000B98E1A8E8160782F9C8F8B8F4D2D5DEF6D
:1021F00060E08C8D0E94B92FEFE3FFE13197F1F79A
:1022000000C0000021E0F8018081082E000C990B2D
:1022100064E070E00E94E7328083C22AD39459CFF1
:10222000C1100E94552A86E0E1EBF2E0D201019054
:102230000D928A95E1F71092B3021092B4021092B7
:10224000B5021092B6028B81811104C08C81882363
:1022500009F45FC08091AF029091B0020E94462ABB
:10226000AC019091AB02992339F02091130130E039
:102270002417350758F04DC020911401FAE02F9F24
:10228000900111242417350718F043C09F3F19F01F
:102290009F5F9093AB021B81112361F00E94EB259D
:1022A000111614F491E001C09FEF899F802D112435
:1022B0008093B3021C81112361F00E94EB2511165B
:1022C00014F491E001C09FEF899F802D1124809329
:1022D000B4023091B3023323E1F02091B4022223FF
:1022E000C1F045EB3403C0011124992319F09093F8
:1022F000B30203C081E08093B30255EB2503C00114
:102300001124992319F09093B40203C081E08093C3
:10231000B4028D81811104C08E81882309F45FC0CD
:102320008091AD029091AE020E94462AAC0190913C
:10233000AA02992339F020910F0130E024173507C4
:1023400058F04DC0209110016AE0269F90011124A1
:102350002417350718F043C09F3F19F09F5F9093F3
:10236000AA021D81112361F00E94B225111614F4F6
:1023700091E001C09FEF899F802D11248093B502C9
:102380001E81112361F00E94B225111614F491E010
:1023900001C09FEF899F802D11248093B602309158
:1023A000B5023323E1F02091B6022223C1F075EB90
:1023B0003703C0011124992319F09093B50203C08B
:1023C00081E08093B50235EB2303C00111249923EA
:1023D00019F09093B60203C081E08093B60246E004
:1023E00050E0B20181EB92E00E943F33892BA9F4C7
:1023F0008091B30281110FC08091B40281110BC092
:102400008091B502811107C081E09091B6029111CF
:1024100003C080E001C081E080FD0E94032586E0CA
:10242000F201A1EBB2E001900D928A95E1F70E94D2
:10243000122B90918501891721F0809385010E94CC
:10244000552A0E94B0290E9432288091B504882321
:1024500009F4D1CC80914A0584FFCDCC8091AB04A6
:10246000803209F0C8CC00919F011091A0018091A9
:10247000BD040115110569F08E3F09F036C4809145
:10248000BE04833008F4C8C18550833008F02DC4E1
:10249000C3C18B3009F4ABC138F5853009F46FC086
:1024A000D8F48230E9F138F4813009F01CC410927C
:1024B000BE0489E0A7C2833009F44FC0843009F01C
:1024C00012C44091C0046091BF048091BE040E9478
:1024D0003D229093C10418C4873009F404C408F065
:1024E00002C40E94F32001C4803109F4BFC060F42B
:1024F0008D3009F456C008F452C08E3009F456C02D
:102500008F3009F481C0EFC3823109F4B6C008F4FA
:10251000B0C0833109F4DDC08E3F09F47DC1E3C34F
:102520008091BE04823009F4E5C3833071F08130BC
:1025300009F0D9C30E94552A9093BF048093C00428
:102540007093C1046093C204D0C380919B019091A9
:102550009C01892B09F0DBC3C8C38091BE04823083
:1025600009F0C1C36091BF047091C0048091C1049F
:102570009091C2040E9401330E94B624B6C32091F8
:10258000C1043091C2043227232732274091C0046E
:102590006091BF048091BE040E941C22A6C380E10A
:1025A00069C082E08093BE048DE82CC20091BE0415
:1025B0001091BF04102701271027C090C004D12C10
:1025C0004DE1C416D10408F090C3BDEBEB2EB4E08E
:1025D000FB2EC8018D589E4F97012D5B34402C1562
:1025E0003D0508F082C30D3852E0150728F40E941B
:1025F0008932F701848302C0F70114820F5F1F4FF5
:10260000FFEFEF1AFF0AE5CF80919B0190919C01AB
:10261000892B09F46AC30091BE041091BF041027EE
:1026200001271027E090C004F12C2DE1E216F104FF
:1026300008F05BC3ADEBCA2EA4E0DA2EC8018D58BA
:102640009E4F96012D5B34402E153F0508F04DC37B
:102650000D3832E0130720F4F60164810E949732AE
:102660000F5F1F4FFFEFCF1ADF0AE8CF0E94B8209D
:102670003CC384E08093BE0438C30091BE04109133
:10268000BF04102701271027C090C004D12C2DE1D2
:10269000C216D10408F029C3FDEBEF2EF4E0FF2EA3
:1026A000C801879697012D5B34402C153D0508F035
:1026B0001CC30832110528F40E948932F701848373
:1026C00002C0F70114820F5F1F4FFFEFEF1AFF0ADE
:1026D000E7CF0091BE041091BF04102701271027F7
:1026E000C090C004D12C2DE1C216D10408F0FDC267
:1026F0000832110508F0F9C288E290E0801B910BC6
:102700008C159D0508F4F1C2480137E2830E911C37
:1027100080919B0190919C01892B29F0EDEBEE2E8D
:10272000E4E0FE2E5BC000FF10C0C80186960E9448
:10273000893290E0982F88272091C104822B81153F
:102740009C4531F43092C10403C0E12CF12C03C04C
:10275000EE24E394F12CC601800F911F560180FFF7
:102760001AC051E0A51AB108B5016F537B4F7CAB7D
:102770006BABC4018C0D9D1D0E948932EBA9FCA995
:10278000208130E0322F2227282B21153C4519F4D7
:10279000EBA9FCA93082F701E354FB4FCF018D5B1D
:1027A00094408A159B0508F0B9CF848190E0982F5A
:1027B00088272581822B81159C4511F4348235822E
:1027C0003296ECCF0832110520F4F70164810E94A3
:1027D00097320F5F1F4FFFEFEF1AFF0AC80187966E
:1027E00097012D5B34402C153D0560F37EC280912E
:1027F0009B0190919C01892B09F477C20E94892941
:102800002FEF31EE44E0215030404040E1F700C06E
:1028100000000E940B2A69C2E091BE048E2F90E056
:102820008E30910508F061C2FC01E05CFF4F0C9412
:10283000FB3288E0EBE1F1E0D20101900D928A9544
:10284000E1F780E2EDEBF4E011928A95E9F785E09B
:102850008093BD0488E0F201A1ECB4E01AC284EFD9
:102860008093BD041092BE041092BF041092C00465
:102870003CC28091C00490E0982F88272091BF042B
:10288000820F911D092E000CAA0BBB0B35E0880F9F
:10289000991FAA1FBB1F3A95D1F7AC01BD01405E3D
:1028A0005F4F6F4F7F4F481759076A077B0708F440
:1028B0001CC2843F9105A105B10508F016C2453F31
:1028C00051056105710520F044EF50E060E070E0D3
:1028D000481B590BBC0166557F4F8DEB94E00E945D
:1028E000703203C21091BF040091C00440E0602F19
:1028F000812F0E94E8219093BD048093BE0441E0A3
:10290000602F812F0E94E8219093BF048093C00420
:10291000ECC18091C2049091C3049827892798271D
:102920000E94A62441E02091C104211101C040E091
:102930009C016091C0048091BF040E94BB21D5C15D
:1029400040E250E06FEF70E08DEB94E00E94553371
:1029500080919B018093BD040093BE041092BF043C
:102960001092C0041092C10484E0CEC17092A00104
:1029700060929F0122E330E0309389012093880127
:102980000E94612A9093870180938601AEC1012B3A
:1029900079F110918A0180918601909187010E94BE
:1029A000462A85369105F0F014FF1CC010FF1AC0AE
:1029B0000E94612A9093870180938601809188010B
:1029C0009091890101979093890180938801892BC7
:1029D00079F41092A00110929F0170929C01609274
:1029E0009B0106C042E350E0509389014093880167
:1029F00080919B018093BD0480919F018093BE04D0
:102A0000809188018093BF0470C110929C01109244
:102A10009B016BC10091BF041091C00440E250E0E3
:102A20006FEF70E08DEB94E00E9455332AEB31E0BC
:102A300080E090E0AC014E5F5F4F4132510508F0FD
:102A400054C1F901659174910617170730F4FC0120
:102A5000E354FB4F71836083CA01245F3F4F66EBF1
:102A600072E06217730731F740C12091BF043091C3
:102A7000C0048AEB91E0FC0145915491241735077D
:102A800031F00C9672E0863B9707A9F741C000979A
:102A900009F43EC0FC01369625913491211531058B
:102AA00009F436C04FE150E06EEB74E0F90109958E
:102AB00032C08091BF049091C0040AEB11E0F8018C
:102AC000259134918217930739F0045F1F4FF2E08C
:102AD000063B1F07A1F71CC001151105C9F0F8013D
:102AE0003896259134912115310591F04CE150E053
:102AF00061EC74E0C801F9010995009761F4F801EF
:102B00003A9685919491009729F0FC01099502C0AD
:102B10008FEF01C080E08093BD04E7C00E94682071
:102B2000E4C0E091BF048E2F90E08730910508F05B
:102B3000DCC0FC01E25BFF4F0C94FB3280E2EDEB6A
:102B4000F4E011928A95E9F788E08093BD048093C0
:102B5000BE0458CF8091C0041AE0F201212F1192D7
:102B60002A95E9F7B2010E94A6218093BD04F201E3
:102B7000AEEBB4E001900D921A95E1F7B6C010915A
:102B8000C0048AE0E1ECF4E0D20101900D928A9554
:102B9000E1F789819A810E94A6249A8389838B8197
:102BA0009C810E94A6249C838B838D819E810E94A0
:102BB000A6249E838D838F8198850E94A624988762
:102BC0008F83183068F43AE0139FB00111246D57D9
:102BD0007F4F4AE050E0C2010E94BB3280E001C05A
:102BE0008FEF8093BD040E943C237FC06091C0049E
:102BF0008AE0F20111928A95E9F7683008F042C044
:102C0000FAE06F9FB00111246D527F4F34C01091D4
:102C1000C0048AE0E1ECF4E0D20101900D928A95C3
:102C2000E1F789859A850E94A6249A8789871830BA
:102C300068F42AE0129FB00111246D527F4F4AE0E0
:102C400050E0C2010E94BB3280E001C08FEF809350
:102C5000BD040E94DA2249C06091C0048AE0F201FA
:102C600011928A95E9F7683068F4FAE06F9FB00135
:102C700011246D5D7E4F4AE050E0C2010E9479321E
:102C800080E001C08FEF8093BD048AE0F201AEEBDB
:102C9000B4E001900D928A95E1F727C01091C0042D
:102CA0008AE0E1ECF4E0D20101900D928A95E1F71F
:102CB0008B819C810E94A6249C838B83183068F4AE
:102CC0002AE0129FB00111246D5D7E4F4AE050E072
:102CD000C2010E94BB3280E001C08FEF8093BD042F
:102CE0000E94662202C03092BD040E94892910927F
:102CF000AB0481C886E290E00E9489321092BF0442
:102D00001092C0041092C1048093C204EECF80914F
:102D10008A0178CE9B01782F777043E0969587954E
:102D20004A95E1F7FC01EE0FFF1F8E0F9F1FF9017F
:102D3000E80FF91F40E050E080E0219130E0072EDD
:102D400002C0369527950A94E2F721703327042EA6
:102D500001C0220F0A94EAF7822B4F5F5F4F433086
:102D6000510559F70895962F9770A1E001C0AA0F59
:102D70009A95EAF793E0769567959A95E1F7FB01C6
:102D8000EE0FFF1F6E0F7F1FFA01E60FF71F40E0E7
:102D900050E0682F70E090819B01042E02C03695B0
:102DA00027950A94E2F72170219529272A232927BC
:102DB00021934F5F5F4F4330510569F7089580E0DD
:102DC00090E00E94FC2A80E090E00E94E62A1092A7
:102DD00014040E94B52EE1EBF2E086E0DF011D92C3
:102DE0008A95E9F71092AB021092AA021092AC02F7
:102DF0000E9403250895CF92DF92FF920F931F93B5
:102E0000CF93DF936C010091DD0480912E05082B98
:102E1000C7E0D0E010E0C8010C2E02C09595879560
:102E20000A94E2F780FD04C02197A8F7F12C09C0AD
:102E3000FC2EB6018C2F0E94C8200E94F22B019715
:102E400099F38F2DDF91CF911F910F91FF90DF901C
:102E5000CF900895CF93DF93EC010E94FB16BE0143
:102E60000E94C8200E94F22BDF91CF910895903FDD
:102E700081F0911105C0853018F460E971E005C05A
:102E80009C5F923030F46DE871E090E00E948A1609
:102E9000089580E00895282F903F91F0862F622FAB
:102EA000911106C0253020F470E040E951E006C0E1
:102EB0009C5F923028F470E04DE851E00E94B31618
:102EC00008958093DD040E94DF16089521E030E02C
:102ED00001C0220F8A95EAF720958091DD048223B4
:102EE0000E946117089521E030E001C0220F8A9509
:102EF000EAF78091DD04822B0E9461170895809388
:102F00002E050E94DF16089592959F70963079F0F5
:102F100010F4925001C09A50923068F4803F69F0EA
:102F200018F4883E40F409C0843F29F406C0883E66
:102F300020F0813F11F080E0089581E00895109223
:102F4000A30186E0E5E9F1E0DF011D928A95E9F74A
:102F50000E94DF160895882321F00E94372E0E94D8
:102F6000B52E0895882339F090911404892B80930D
:102F700014040E94B52E0895882321F00E943E2E4D
:102F80000E94B52E0895882321F00E94452E0E94AC
:102F9000B52E0895882391F19CEF980F913A30F463
:102FA000682F83E991E00E94BF2A0DC090E2980F3C
:102FB000983060F4877091E001C0990F8A95EAF724
:102FC000892F0E943E2E0E94B52E08959BE5980FF2
:102FD000933028F480E090E00E94FC2A089598E560
:102FE000980F973128F480E090E00E94E62A089537
:102FF000803F20F00E942D250E9403250895CF9345
:10300000882309F44EC0C82F8CEF8C0F813A80F4CE
:10301000E5E9F1E08BE991E02191C217D1F18E173A
:103020009F07D1F76C2F83E991E00E94CC2A0CC056
:1030300080E28C0F883058F4C77081E001C0880F9F
:10304000CA95EAF70E94452E0E94B52E2AC0EBE5EC
:10305000EC0FE33040F4F0E0E85CFE4F808190E05C
:103060000E94FC2A1EC0E8E5EC0FE73150F4F0E0C6
:10307000EE0FFF1FE55CFE4F808191810E94E62AE2
:1030800010C0C03F70F08C2F0E943A260E9403258A
:1030900008C06C2F83E991E00E94BF2A0E94B52EE0
:1030A000C1CFCF9108951F93CF93DF93182F89330A
:1030B00029F4C091E401D091E50104C0C091E2017E
:1030C000D091E301812F0E94FF17209741F08FE9F3
:1030D0009FE00197F1F700C000002197F6CF812F04
:1030E0000E94CA17DF91CF911F910895CF93DF936C
:1030F000EC014B815C81698188810E94FF1D8111F7
:103100000EC08E819F81009719F00E94F22B04C09F
:10311000888199810E942A170E94841701C080E04B
:10312000DF91CF910895A5E1B0E0E9E9F8E10C94D1
:103130000A338C0185E0F801DE01519601900D9271
:103140008A95E1F7D8015C9011966C9011971296D0
:10315000EC9012971396CD90DC90149760E08EED72
:1031600094E00E94AB2F8EEDA82E84E0B82E8090C4
:10317000E1049090E204A4016091DF048091DE04F8
:103180000E94FF1DF82E8111DBC14090E004F60182
:10319000E819F9094F0160E0442009F45FC1C50155
:1031A0000E94AB2FB5010E941E237090E304881685
:1031B000990608F00BC14091E1045091E204B090EF
:1031C000DE04A090DF04872D807F6A2D09F08EC079
:1031D0008B2D0E94FF1D811124C0D80111968C9166
:1031E00011978A111EC08C918B111BC02091E40491
:1031F0003091E50416968D919C9117972817390701
:1032000081F4E1100EC0872D8F7080618093E304FC
:103210008EED94E00E94FA038091E304F801858327
:10322000ABC1A601662D852D0E94FF1DD82E8111F0
:1032300003C081E08E2502C080E090E080FF17C0CF
:103240004E2D662D852D0E94F82E882381F08091C9
:10325000E10180FF0CC08EED94E00E94FA03EEEDD8
:10326000F4E088E0DF011D928A95E9F785C1D1106D
:1032700003C081E08E2502C080E090E0B82FB170DD
:10328000CB2E80FF2AC04E2D662D852D0E94F82E54
:10329000D82E811122C0598A6A8A89899A890E9406
:1032A0002A17292F22952F70223018F0243078F415
:1032B00005C09F7049F0811107C00DC09F7021F0BB
:1032C000F8019581907F39F0805E883020F0C80148
:1032D0000E94FA03DC2CFD2C4FC1EE2009F44BC1F7
:1032E0008091E30481608093E30446C18B2D0E94AA
:1032F000FF1D811124C0D80111968C9111978A115C
:103300001EC08C918B111BC02091E4043091E50408
:1033100016968D919C9117972817390781F4E11023
:103320000EC015967C92C8010E94FA0388E0F8014D
:10333000AEEDB4E001900D928A95E1F76FC0C8013F
:103340000E9476188823E1F1EE20D1F12091E30468
:10335000822F82958F7090E00297A4F08091DE0416
:103360009091DF049A8789871B86DD86CC862E871D
:103370008091E4049091E504988B8F87CE010996A3
:103380000E94FA0388E0F801AEEDB4E001900D92DE
:103390008A95E1F70E94222F16C0F090DE049090EB
:1033A000DF044091E1045091E204692D8F2D0E94C9
:1033B000FF1D882399F0C8010E947618811130C042
:1033C000C8010E94FA03FF24F394D6C0872D807FA2
:1033D00021F78EED94E00E94FA03ACC0D80111965B
:1033E0008C9111978911E7CF8C918F11E4CF2091A7
:1033F000E4043091E50416968D919C911797281757
:103400003907C9F6E110D7CF15967C92C8010E9402
:10341000FA0388E0F50111928A95E9F7F42CACC023
:10342000EE2071F22091E304822F82958F7090E05C
:1034300002970CF4A7CF8091DE049091DF049A8369
:1034400089831B82DD82CC822E838091E40490915B
:10345000E50498878F83CE01019692CF8EED94E09C
:103460000E94AB2F6EED74E00E941E238816990611
:1034700008F060C0FE2CEE2009F4A2CFE090DE043C
:10348000D090DF044091E1045091E2046D2D8E2D27
:103490000E94FF1D811140C0D80111968C91119797
:1034A0008D113AC08C918E1137C02091E404309177
:1034B000E50416968D919C9117972817390761F5A9
:1034C0008091E10182FD1FC08091E30480FD1BC05B
:1034D00082958F70482F50E041155105A1F0209141
:1034E000E30415962C9315974F30510549F08F5FE3
:1034F000982F9295907F822F8F70892B15968C93A1
:10350000C8010E94FA0388E0F801AEEDB4E0019032
:103510000D928A95E1F730C0C8010E94761881119A
:1035200031CF8091E30481608093E304C8010E945D
:10353000FA0322C088E0F50111928A95E9F71CC0D0
:10354000EE2009F43DCFC8010E947618F82E88239A
:1035500009F436CF88E0F801AEEDB4E001900D92A9
:103560008A95E1F78091DE049091DF040E942A178A
:103570000E94222F01C0F12C8F2D6596E0E10C9462
:103580002633A0E1B0E0E7ECFAE10C94143329878C
:103590003A874B875C876D877E878F87988BCE01B4
:1035A00009960E94931881114AC088E0FE0139965D
:1035B000DE01119601900D928A95E1F7E984FA8473
:1035C0000C851D85A8016F2D8E2D0E94FF1D811178
:1035D00036C0A091E604B0E0CD010196877099272E
:1035E0002091270530E08217930781F1E982FA8262
:1035F0001D830C8393E0AA0FBB1F9A95E1F7A95195
:10360000BB4F98E0FE01319601900D929A95E1F73B
:103610008093E6040E94182F12C028E0829FC00108
:10362000112489519B4F0E9493188823E1F08091C7
:10363000270590E001968770992780932705809150
:1036400027059091E6048913E8CF0DC00E949F17CB
:103650001092E60410922705EEEDF4E088E0DF0119
:103660001D928A95E9F76096E6E00C943033A0E06D
:10367000B0E0EDE3FBE10C9410334430510508F465
:103680006CC04091A10141FBCC24C0F8D12CCC0CE2
:10369000DD1C42FB882780F9C82FE0E0DE2FCC0F2D
:1036A000DD1FCC0FDD1FCC2ADD2A40FBEE24E0F825
:1036B000F12CEC28FD2843FBAA27A0F9B0E023E079
:1036C000AA0FBB1F2A95E1F7EA2AFB2A44FBEE2743
:1036D000E0F9F0E034E0EE0FFF1F3A95E1F7EE2954
:1036E000FF2945FB222720F930E055E0220F331F48
:1036F0005A95E1F72E2B3F2B46FB882780F990E067
:10370000E6E0880F991FEA95E1F7822B932B47FBA0
:10371000442740F950E05695542F44275795479534
:10372000842B952B2091A201322F3170132F00E0B2
:10373000082B192B26952170B22EBB0CA12C0A291F
:103740001B29012E000C220B330BFB01008311837C
:103750002283338380E090E002C08FEF9FEFCDB7EC
:10376000DEB7EAE00C942C33E4ECF1E0848195813F
:103770002AE030E0B9010E94D332609314018681BF
:1037800080931301828580931201848580931101B7
:1037900086859785B9010E94D33260931001808994
:1037A00080930F01828980930E01848980930D019B
:1037B00008958091C4019091C50190931601809362
:1037C00015010895CF92DF92EF92FF924430510598
:1037D00008F46FC0FB01C080D180E280F3800E94BA
:1037E0009F178091A101C0FA80F9B701A6017695D3
:1037F00067955795479540FB81F9B701A60122E0EF
:1038000076956795579547952A95D1F740FB82F9AC
:10381000B701A60133E076956795579547953A9598
:10382000D1F740FB83F9B701A601E4E076956795EF
:1038300057954795EA95D1F740FB84F9B701A60162
:10384000F5E07695679557954795FA95D1F740FB42
:1038500085F9B701A601A6E0769567955795479536
:10386000AA95D1F740FB86F9B701A601B7E0769596
:10387000679557954795BA95D1F740FB87F980939F
:10388000A1018091A201D0FA80F999E0F694E79421
:10389000D794C7949A95D1F7C0FA81F98093A20181
:1038A0008091A1019091A2010E948E2D80E090E074
:1038B00002C08FEF9FEFFF90EF90DF90CF900895C1
:1038C0009C01CA01F90132964591549184179507DC
:1038D00050F0CB01F9013496659174910E944C33FC
:1038E00080E090E008958FEF9FEF08950F931F936E
:1038F000CF93DF9304EC11E0CFE5D0E0CE010E943E
:103900008932F80161918F01681719F0CE010E9488
:1039100097322196C338D10589F7DF91CF911F9156
:103920000F910895DA019C012E5F3F4FF9014591F7
:103930005491F90125913491A217B30758F0FC0175
:103940003496859194910E944C330E94761C80E0BD
:1039500090E008958FEF9FEF0895A0E0B0E0E3EBD3
:10396000FCE10C9410337C015B01C42FD22FFC01CD
:1039700082818823B1F04093A9020E94612A90932A
:10398000A8028093A70280E28C0F883008F052C012
:10399000C77081E001C0880FCA95EAF70E94C3177B
:1039A00049C08091A902481335C08091A702909127
:1039B000A8020E94462A6C01B701C5010E941E237D
:1039C000C816D90638F510E21D0FCD17B9F080E200
:1039D0008C0F883040F4C77081E001C0880FCA9511
:1039E000EAF70E94BC17183010F581E09D2F977000
:1039F00001C0880F9A95EAF70E94C317802F0E9492
:103A000053181830B8F4D77081E001C0880FDA95E8
:103A1000EAF70AC080E28C0F883060F4C77081E05A
:103A200001C0880FCA95EAF70E94BC1703C0802F17
:103A30000E945318CDB7DEB7EAE00C942C33CF9335
:103A4000DF93EC0140919C0250919D0260919E0297
:103A500070919F022FB7F89480911F0490912004D9
:103A6000A0912104B09122042FBF841B950BA60BBB
:103A7000B70B843F9140A105B105A8F480919C0249
:103A800090919D02A0919E02B0919F028093980216
:103A900090939902A0939A02B0939B0284EF91E0D5
:103AA000A0E0B0E00EC00E94552A60939802709387
:103AB000990280939A0290939B0282E390E0A0E0A7
:103AC000B0E08093940290939502A0939602B093F5
:103AD0009702D093A402C093A302DF91CF910895DF
:103AE000FF920F931F93CF93DF930091A502109144
:103AF000A6020115110509F45CC01092A4021092EF
:103B0000A3021092A0021092A102D80116966D9104
:103B10007C9117979B013A9521153F4108F4707EDF
:103B2000C62FD1E0611101C0D0E0F82ED80119965E
:103B3000ED91FC911A97309739F01B966D917C911D
:103B40001C9780E00995D823DD2379F08CEF8C0F4A
:103B5000813A30F46C2F83E991E00E94BF2A05C0BE
:103B60000E94B52E8C2F0E94CA17E091A502F091F9
:103B7000A60240815181FF2071F0808584FD0BC039
:103B80008091A202882339F091E09A0121503109F5
:103B9000203B3D4508F090E090FF03C0CA010E9421
:103BA0001F1D0E94B52E1092A6021092A50210921F
:103BB000A202C801CDB7DEB7E5E00C943133FC01B9
:103BC00084818623C1F492819923B9F08085692389
:103BD00083FF04C081E0611111C00DC0892F8F7077
:103BE00092959F70982B862F8F7062956F70682BBF
:103BF00081E0961719F080E0089581E00895452B43
:103C000041F06F3F41F491E08F3F09F090E0892F40
:103C100003C081E001C080E081700895BC01409143
:103C2000900280919102942F981729F1292F30E06A
:103C3000F901EE0FFF1FE857FD4F0190F081E02DD5
:103C4000E617F70799F487E0869FF001879FF00D4C
:103C50001124E05BFD4F81E0848394130CC02F5F3F
:103C60003F4F237033272093900208952F5F3F4FDB
:103C7000922F9370D9CF0895EF92FF920F931F93D5
:103C8000CF93DF938091EF01882309F440C0009126
:103C9000EE018CE0F82E8091EF010817A0F5EE24DC
:103CA000E394E00EE092EE0110E0F09EE001F19E60
:103CB000D00D1124C051DE4F4B815C816981888118
:103CC0000E94FF1D81111DC08E819F81892B21F4CF
:103CD00088859985019651F4288139814A815B81D3
:103CE0006C817D818E819F810E94C11AF09EF001BE
:103CF000F19EF00D1124E051FE4F148213821092B8
:103D000014040E2DC8CF1092EF011092EE01CDB722
:103D1000DEB7E6E00C9430331092ED011092EC0126
:103D2000E0E5F2E08581811102C0148216823796A7
:103D300082E0E838F807B1F70895109293021092E4
:103D400092021092180180919102809390020E9439
:103D50008C1E0E943C1E0895A0E0B0E0E2EBFEE164
:103D60000C940933C091900297E0892E01E010E095
:103D70002CE0322E3EEF932E442443948091910206
:103D8000C81709F479C0D0E0FE01EE0FFF1FE85715
:103D9000FD4F80819181889ED001899EB00D1124B4
:103DA000A05BBD4F14962C911497211162C05090C6
:103DB000EF01E0EFF1E020E030E0712C5D0125152E
:103DC00008F055C0E284F384D501CD90DC906FEF0C
:103DD0007FEF612C462D50E0DA01AA0FBB1FAC0D1E
:103DE000BD1D0D90BC91A02D109731F0EA16FB0679
:103DF00009F4BA016394EECF6F3FBFEF7B0799F1EF
:103E0000D80102C0AA0FBB1F6A95E2F77A2AB8014F
:103E1000062C02C0660F771F0A94E2F7AB014150EF
:103E20005109672D70E046175707D9F4329EF0010B
:103E3000339EF00D1124E051FE4F889ED001899EE3
:103E4000B00D1124A05BBD4F12962D913C9113979C
:103E500037832683908291829187808715964C9232
:103E600006C0148213822F5F3F4F3C96A8CF0E945A
:103E70000E1E2196C37082CF0E943C1E0E948C1E93
:103E8000CDB7DEB7E1E10C94253380911701877F30
:103E90008093170182E00E94372E8091170184FFE2
:103EA00006C08F7E8093170182E00E94452E80918C
:103EB000170185FF06C08F7D8093170180E20E9465
:103EC000452E0E94B52E0895662329F020911404F2
:103ED0002260209314049C013056211540E23407DF
:103EE00020F0305E2115304108F499270E945632A7
:103EF0000895009741F0EFE9FFE03197F1F700C036
:103F000000000197F6CF0895A0E0B0E0EAE8FFE1F5
:103F10000C9410335C017B01C42E89018091170140
:103F200082FF8DC0C091EA01D091EB01CA15DB057B
:103F300021F0A114B10409F082C0809117018B7F98
:103F40008093170181FD11C08091E8019091E901F2
:103F5000A701481B590B81E02091150130911601F2
:103F60004217530718F480E001C081E08170D82E19
:103F700080911701D0FA81F980931701FE01FF2784
:103F800084E0F695E7958A95E1F79E012F70332737
:103F9000EE0FFF1FEC55FE4F81E090E002C0880F4E
:103FA000991F2A95E2F7DD2029F020813181822BAB
:103FB000932B06C080959095208131818223932395
:103FC000918380838091A30181FF08C080911701B4
:103FD00080618093170182E00E943E2E8091A301B0
:103FE00085FF08C08091170180628093170180E2ED
:103FF0000E943E2EA8016D2DCE010E94641FCC2090
:1040000031F08091DF0185FF02C086FF36C08091CC
:10401000E2019091E3010E94791F8091EA01909161
:10402000EB019C013056211540E2340720F0305E50
:104030002115304108F499270E943C3218C095019F
:104040003327C5019056811540E2940720F0905E19
:104050008115904110F4C90101C0C5010E943C3294
:104060008091EA019091EB01A816B90611F40E9423
:10407000451FF092E901E092E801CDB7DEB7EAE032
:104080000C942C330F931F93CF93DF9304EC11E028
:10409000CFE5D0E0CE010E948932F80181938F01F3
:1040A0002196C338D105B1F7C0E0D0E0FE01EC5352
:1040B000FE4F85919491009711F0FC0109952C9683
:1040C000CC3FD10599F7DF91CF911F910F910895C2
:1040D000E4ECF1E0128E138E8FEA90E091838083FE
:1040E00025E0248F88E893E1938382838AE090E03F
:1040F0009583848344E150E05783468348E050E051
:1041000051874087938782876EE170E07587648767
:104110009787868780E590E0918B808B538B428BCD
:1041200048E250E0558B448B42E350E0578B468B7E
:1041300048EC50E0518F408F158E178E168E91A34C
:1041400080A322A30E94761C0E949F171092A201B6
:104150001092A101E2EAF1E0808184608083809185
:10416000A1019091A2010E948E2D0E9442200895EB
:10417000CF93DF93C3E7D1E060E0CE010E94973296
:104180002196C11584E0D807B9F7DF91CF91089542
:1041900020919F013091A001232B11F5703F39F43C
:1041A000603FF1F480919D0190919E0108958430CB
:1041B000B8F4462F711106C0653090F460E00E949B
:1041C0003D2208957D3F21F461110AC041E004C001
:1041D0007C3F31F4611104C060E00E94E821089541
:1041E00080E090E00895AEE1B0E0E9EFF0E20C94F9
:1041F0000E33A0909B01B0909C0181E090E09093E1
:104200009C0180939B019EE9C92E91E0D92E812CBF
:10421000912C00E010E0E12CF12C023011051CF093
:1042200021E030E009C0F701E80DF91DEE0FFF1F96
:10423000EA55FE4F259134914E2D60E0802F0E946B
:104240001C22FFEFEF1AFF0A85E0E816F10429F7B8
:10425000023011056CF4F6012591349141E060E0E3
:10426000802F0E94BB21F60132962591349109C01E
:1042700021E030E041E060E0802F0E94BB2121E09E
:1042800030E040E060E0802F0E94BB210F5F1F4FB5
:1042900084E0C80ED11CE5E08E0E911C043011059F
:1042A00009F0B9CF0E9468201A8219821C821B82F1
:1042B0001E821D8218861F8288EC90E09A8789876B
:1042C00003E810E04AE050E0B801CE0101960E94F8
:1042D000BB32065F1F4F033D1105A1F77E01EBE0E6
:1042E000EE0EF11C8AE0F70111928A95E9F74AE097
:1042F00050E0B801C7010E94BB32065F1F4F033276
:10430000F1E01F07A1F77E0185E1E80EF11C8AE0CC
:10431000F70111928A95E9F78FEF9FEF9A8F898FB6
:1043200087E08E8F4AE050E0B801C7010E94BB329F
:10433000065F1F4F0337F1E01F07A1F7B0929C0102
:10434000A0929B016E96ECE00C942A33883080F4A6
:104350009B01982F8AE0989FB00111246D577F4FE1
:104360004AE050E0C9010E94793280E090E008956F
:104370008FEF9FEF08950F931F93CF93DF938430B8
:1043800010F5611120C094E0899FE0011124C15B08
:10439000DF4F411103C082E090E002C080E090E076
:1043A000632F022F142F8C0F9D1F0E949732111123
:1043B00003C083E090E002C081E090E0602F8C0FAA
:1043C0009D1F0E949732DF91CF911F910F91089509
:1043D000FF920F931F93CF93DF93843030F56111D9
:1043E00024C024E0829F80011124015B1F4F4111F2
:1043F00003C082E090E002C080E090E0F42E800FE5
:10440000911F0E94893290E0D82FCC27F11003C071
:1044100083E090E002C081E090E0800F911F0E9455
:1044200089329E01282BC90102C080E090E0CDB7FF
:10443000DEB7E5E00C9431331F93CF93DF938430E4
:10444000C0F4611116C04530A0F4632F122FC42FA1
:10445000D0E0CC0FDD1F9AE0899FC00DD11D112443
:10446000CE0187960E949732612FCE0188960E94D6
:104470009732DF91CF911F9108950F931F93CF93A0
:10448000DF938430E0F461111AC04530C0F4C42FCA
:10449000D0E0CC0FDD1F2AE0829FC00DD11D11247A
:1044A000CE0187960E94893290E0182F0027CE0116
:1044B00088960E9489329801282BC90102C080E0A9
:1044C00090E0DF91CF911F910F910895AAE0B0E0A5
:1044D000ECE6F2E20C940E330CE913E08AE8C82E05
:1044E00083E0D82E93E2E92EFF24F3942FE0922E5E
:1044F00039E8A32E33E0B32E88248394F601019388
:1045000011936F014AE050E0B701CE0101960E947D
:104510007932F801892D11928A95E9F789819A817A
:10452000F801918380838F8182838D818383888545
:104530008483898585838B819C819783868310867C
:104540008A8587FF03C01686158603C0F801B686E4
:10455000A58680FF02C0F801808681FF04C0F801B3
:1045600090859260908782FF04C0F80190859460E6
:10457000908783FF04C0F80190859860908784FF3E
:1045800004C0F80190859061908785FF04C0F80110
:10459000808580628087015F1F4FFAE0EF0EF11C7B
:1045A00083E7E81681E0F80609F0A8CF2A96ECE048
:1045B0000C942A33AAE0B0E0E0EEF2E20C9412335D
:1045C00080E5E9E3F3E0DF011D928A95E9F788E3EE
:1045D000E0E5F2E0DF011D928A95E9F789E3C82E54
:1045E00083E0D82E7F0103ED10E0F701D182C08275
:1045F0004AE050E0B801CE0101960E94793288E08D
:10460000FE013196D60101900D928A95E1F78985D8
:104610009A85D70113969C938E931297BAE0CB0E8E
:10462000D11CE7E0EE0EF11C065F1F4F0332F1E0F4
:104630001F07D9F62A96E8E00C942E33AAE0B0E0E2
:10464000E4E2F3E20C9418339C0137552F3F310517
:1046500009F050F4BE016F5F7F4F0E94A621892BA5
:1046600019F489859A8504C08091DC019091DD015F
:104670002A96E2E00C943433E9ECF2E080E090E03A
:1046800065E074E24CE254E229E733E27783668323
:1046900051874087338722879587848701963E9686
:1046A0008830910599F70895A5E0B0E0EAE5F3E2D6
:1046B0000C94183390939E0180939D01811520E204
:1046C000920718F40E943C3210C080EF89838A83DD
:1046D0001B820E94612A8160782F9D838C8349818F
:1046E0005A816B818D810E94B92F2596E2E00C944E
:1046F00034330F931F93CF93DF938C01EB016FEB58
:1047000072E08C2F0E94A621892B09F042C0809173
:10471000E2019091E3010E94791FDD27C954DD4F2A
:104720008881F80112821882833079F048F4813050
:1047300041F1823071F58091C1029091C20209C0AD
:10474000843051F08530E9F024C08091C30290910B
:10475000C4020097B1F01BC08091C5029091C602BF
:104760000097A9F42091BF023091C0028091C1024C
:104770009091C2022115310541F0009741F4C90121
:1047800006C08091BF029091C002009711F00E9474
:104790005423DF91CF911F910F910895A5E0B0E0D0
:1047A000E4EDF3E20C94183390939E0180939D0105
:1047B000811520E2920718F40E94563211C080EF52
:1047C00089838A8381E08B830E94612A8160782FAC
:1047D0009D838C8349815A816B818D810E94B92F81
:1047E0002596E2E00C943433CF93DF93EC010E94E2
:1047F000CE238091E2019091E3010E94791FCE01C6
:104800000E945423DF91CF9108950F931F93CF936C
:10481000DF938C01862F6FEB72E00E94A621892B1B
:10482000B1F4C091BF02D091C002209781F0F8018D
:104830008281833039F4CE010E94F423CE010E949C
:10484000F42302C0843018F0CE010E94F423DF91DB
:10485000CF911F910F9108950F931F93CF93DF93E3
:104860008C01EB016FEB72E08C2F0E94A621892B4B
:1048700009F067C0DD27F8018281813039F4958124
:1048800092FD13C090FF11C082E00FC0823041F44E
:10489000F801858182FD06C080FD06C083E005C069
:1048A00086E003C085E001C084E0C954DD4F888301
:1048B0008330B1F028F4813071F0823031F041C0A2
:1048C0008430A9F0853079F13CC08091C10290918B
:1048D000C2020097A1F58091BF029091C00220C052
:1048E0008091C3029091C4020097E9F028C08091A2
:1048F000C5029091C602009711F58091BF02909178
:10490000C002009749F00E94F4238091C102909167
:10491000C202009781F013C08091C1029091C2023F
:10492000009779F00CC08091BF029091C00200976F
:1049300041F00E94F4238091BF029091C0020E9436
:10494000CE23DF91CF911F910F91089581152CE512
:10495000920759F480919B0190919C01892B19F445
:1049600080E090E0089580E09CE5089586E290E084
:104970000E9497320895CF93C82F811102C06FEF24
:1049800001C063E583E290E00E949732C11102C04A
:104990006FEF01C060E784E290E00E949732C1119E
:1049A00002C06FEF01C06DE485E290E00E94973293
:1049B000CF91089580E00E94BB2460E070E0CB01BD
:1049C0000E94B6240E94F3200E94B82081E00E9439
:1049D000BB24089583E290E00E948932833581F4FC
:1049E00084E290E00E948932803751F485E290E0C1
:1049F0000E94893291E08D3409F090E0892F01C046
:104A000080E0817008950E94612A2091B3022111F3
:104A100004C02091B402222321F09093B00280932D
:104A2000AF022091B502211104C02091B6022223C9
:104A300021F09093AE028093AD02E0911904F091C1
:104A40001A04309749F082E08093B1020480F58126
:104A5000E02D81EB92E009950895803F39F4809133
:104A6000B40287FF6AC01092B40267C0813F29F484
:104A70008091B4021816BCF360C09091B302823FDB
:104A800029F497FF5AC01092B30257C0833F19F41C
:104A90001916CCF352C09091B502893F31F4191622
:104AA0000CF04BC01092B50248C08A3F19F497FF32
:104AB00044C0F8CF8B3F39F48091B60287FF3DC0E8
:104AC0001092B6023AC08C3F29F48091B6021816B3
:104AD000BCF333C0843F21F48091B2028E7F17C0B3
:104AE000853F21F48091B2028D7F11C0863F21F471
:104AF0008091B2028B7F0BC0873F21F48091B2027C
:104B0000877F05C0883F31F48091B2028F7E809309
:104B1000B20213C08D3F21F48091AC028E7F0BC096
:104B20008E3F21F48091AC028D7F05C08F3F29F428
:104B30008091AC028B7F8093AC028091B302811193
:104B400006C08091B402811102C01092AB02809124
:104B5000B502811106C08091B602811102C0109287
:104B6000AA0208958091AC0280FF08C060910E01F6
:104B700070E0759567957595679521C081FF06C0B2
:104B800060910E0170E07595679519C082FF04C0B1
:104B900060910E0170E010C09091AA02992399F0E3
:104BA00060910D019617A0F780910E01899FC001B9
:104BB000112470E00E94E7326038710540F46115FD
:104BC000710519F406C061E070E0862F08958FE743
:104BD000089581E008958091AC022091CC0130913C
:104BE000CD0180FF0CC080911201829FB001839F94
:104BF000700D112476956795769567952FC081FF86
:104C00000AC080911201829FB001839F700D112410
:104C10007695679523C082FF08C080911201829F1C
:104C2000B001839F700D112419C04091AB02411156
:104C300002C0B90113C060911101461770F780914D
:104C40001201849FA0011124429FC001439F900D37
:104C5000529F900D112470E00E94D332603871058C
:104C600028F46115710521F0862F08958FE70895C6
:104C700081E00895803F21F40E94EB25819504C0D6
:104C8000813F29F40E94EB258093B4020895823F6E
:104C900021F40E94EB25819504C0833F29F40E94F2
:104CA000EB258093B3020895893F19F40E94B22541
:104CB00005C08A3F31F40E94B22581958093B502E8
:104CC00008958B3F21F40E94B225819504C08C3F4A
:104CD00029F40E94B2258093B6020895843F21F4FE
:104CE0008091B202816017C0853F21F48091B202A9
:104CF000826011C0863F21F48091B20284600BC0B3
:104D0000873F21F48091B202886005C0883F31F46A
:104D10008091B20280618093B20208958D3F21F4A8
:104D20008091AC0281600BC08E3F21F48091AC0277
:104D3000826005C08F3F29F48091AC02846080932B
:104D4000AC020895FC0193819330E1F068F4913056
:104D500089F0923009F06FC085EE93E09093BC0427
:104D60008093BB048BE50895913289F1923209F466
:104D700042C061C080E494E09093BC048093BB0483
:104D800082E108958281813089F040F0823089F09B
:104D9000833009F050C083E993E013C081EE93E0C3
:104DA0009093BC048093BB0484E0089583EC93E06B
:104DB00008C081EB93E09093BC048093BB0480E136
:104DC00008959093BC048093BB048CE10895828184
:104DD000813049F028F0823071F580E394E005C01D
:104DE00087EF93E002C080E194E09093BC0480934D
:104DF000BB0489E00895848195818130910599F003
:104E000050F00297C1F486EB92E09093BC0480933B
:104E1000BB048BE7089583E593E09093BC048093F3
:104E2000BB0480E4089581E393E09093BC048093F5
:104E3000BB0482E2089580E0089508958091B6044D
:104E400008951F93CF93DF93162FEA01288124FF43
:104E500005C0398128E82327298302C02AE5288351
:104E6000212FFC01CE010296DC0131913D932150AE
:104E70001216DCF3612F0E94B5021C5F1883DF91CC
:104E8000CF911F9108952091710524FF05C041E73E
:104E900055E066E00E94212708959091AA04981396
:104EA00007C02091A8043091A90426173707B9F04C
:104EB0008093AA047093A9046093A8048093A50426
:104EC0007093A7046093A6048091710584FF07C0C6
:104ED00041E755E063E085EA94E00E9421270895C8
:104EE000BC0184E00E944D270895BC0183E00E942C
:104EF0004D2708958091DD04982F9670963011F417
:104F0000886001C0877F0E9461170895A0E0B0E02B
:104F1000ECE8F7E20C941033EC018AE0A82E28812B
:104F2000222309F49AC0213009F041C089818130DF
:104F300039F48E010E5F1F4F8A810E94531808C0FA
:104F4000823041F48E010E5F1F4F8A810E94FF174D
:104F5000E80181C0833039F48E010E5F1F4F8A81D2
:104F60000E94CA17F5CF843011F0219674C02A81AF
:104F7000229680E090E030E0205331092A3031055C
:104F800058F4A89EA001A99E500D1124C901840FB8
:104F9000951F21962881EFCF009709F45CC0EFE9B7
:104FA000FFE03197F1F700C000000197F5CFE22F45
:104FB000F0E0EE57FB4FB490822F8695869586954C
:104FC00090E0FC01EE58FB4FE4902770F12C022E8C
:104FD00002C0F594E7940A94E2F7F1E0EF22FF248F
:104FE000FC01EE59FB4FC490D12C022E02C0D59487
:104FF000C7940A94E2F731E0C322DD24FC01EE5AA3
:10500000FB4F049110E002C0159507952A95E2F731
:1050100001701127E114F10419F081EE0E94FF17CD
:10502000C114D10419F086EE0E94FF178B2D0E9447
:105030005318C114D10419F086EE0E94CA17E11466
:10504000F10419F081EE0E94CA170115110519F03B
:105050008CE20E945318219662CFCDB7DEB7EAE00A
:105060000C942C33CF93DF9380915905835087FDA7
:10507000E4C090915805CCE0D0E0C91BD109C55AD5
:10508000DA4F909157059031D0F4883019F0109292
:10509000AB04D1C08091AB04E82FF0E0E931F10519
:1050A000B4F7E354FB4F9E01285F3F4F99919193D2
:1050B0002C173D07D9F7885F8093AB04BCC09D32A5
:1050C00009F0A0C0883009F0B6C083EC80933305A6
:1050D0008AE580931A011092BA0488818076D9F10A
:1050E000803209F084C08981813069F48C819D818E
:1050F000892B09F07CC08DEA94E09093BC048093E6
:10510000BB0488E075C0823041F48CEA94E090934F
:10511000BC048093BB0481E06BC08A3021F48B8196
:105120008093AC0464C0893009F061C08A819B819E
:105130008115924009F0DCC08C819D81892B09F09A
:10514000D7C081E08093B9048E819F819093B80489
:105150008093B704CDC09A8110923C05898181115A
:1051600006C010923D052CE335E082E03BC085305F
:1051700019F490935A0533C08630B9F48B8181308D
:1051800041F0823031F0833021F0813211F08232EF
:1051900021F4CE010E94A22601C080E090E4909309
:1051A000BA048F3F09F4A4C023C0883089F0893045
:1051B00019F49093B50413C08A3069F08B3079F4F8
:1051C0008BE480933F058093720580934B0507C065
:1051D00025EB34E002C02CE335E081E003C02CE392
:1051E00035E080E03093BC042093BB0401C080E034
:1051F0009F81911104C09E81981708F4892F809394
:10520000190119C08091BA0487FF15C08091B704B5
:105210009091B804892B09F475C08091B90481304C
:1052200009F070C088818093B6041092B80410927F
:10523000B704109219011092590580911A0184FF48
:105240004CC0809119018F3F09F447C0C82F8930A5
:1052500008F0C8E08C1B809319019091330588E811
:10526000892780933305CC2359F18091BB04909119
:10527000BC042091BA0426FF12C0A3E3B5E02C2F92
:10528000AC0143535540FA01EA0FFB1FE49111961C
:10529000EC931197215011962111F5CF08C0E4E34A
:1052A000F5E0DC012C2F3D9131932150E1F701967F
:1052B0002FEF2C0F820F911D9093BC048093BB04A1
:1052C0006C2F84E395E00E94B502CC5FCC3019F0DE
:1052D0008FEF80931901C0931A0184E199B19C70FA
:1052E000A9F48150D9F710925A05109256050EC0B4
:1052F000888187FF05C08E8190E89093BA047FCFA4
:105300008FEFFACF8EE180931A0195CFDF91CF9185
:105310000895CF93DF93CDEBD4E080914A0584FDCF
:1053200003C00E943228F9CF4AE455E068E0CE017C
:105330000E942127289684E0CD3DD80771F78091FF
:105340004A0584FD03C00E943228F9CF4AE455E0A3
:1053500060E080E090E00E942127DF91CF910895E6
:10536000CF93DF93CAE0D0E080913E0584FF1AC05E
:105370008091A3049091A4049817F1F028E0829FF3
:10538000C00111244EE355E068E08D5D9B4F0E9403
:1053900021278091A30490E001968F709927809334
:1053A000A3040AC00E9432288FE99FE00197F1F719
:1053B00000C000002197C1F6DF91CF910895CF93EF
:1053C000DF93EC01A091A404B0E0CD0101968F70B1
:1053D00099272091A304281779F093E0AA0FBB1F07
:1053E0009A95E1F7AD5DBB4F98E0FE0101900D92FB
:1053F0009A95E1F78093A4040E9432280E94B02974
:1054000088E0FE01ADEAB4E001900D928A95E1F7E3
:10541000DF91CF91089598E088E10FB6F894A895B0
:10542000809360000FBE90936000A895F894D8E038
:10543000CEEF28E3299320E0299314BEFFCF0895EF
:1054400078941F920F920FB60F9211248F939F930F
:10545000AF93BF9380911F0490912004A0912104E9
:10546000B09122040196A11DB11D80931F04909359
:105470002004A0932104B0932204BF91AF919F9187
:105480008F910F900FBE0F901F9018959C014FB7F2
:10549000F89480911F0490912004A0912104B09170
:1054A00022044FBF821B930B08952FB7F89460918D
:1054B0001F047091200480912104909122042FBF39
:1054C00008952FB7F89480911F0490912004A09123
:1054D0002104B09122042FBF089580911E048823D7
:1054E00021F110921D0420E488E190E00FB6F894B9
:1054F000A895809360000FBE2093600083B7817FE2
:10550000846083BF83B7816083BF7894889583B7B5
:105510008E7F83BF0FB6F894A89580916000886154
:1055200080936000109260000FBE08951F920F924A
:105530000FB60F9211248F939F93AF93BF938091D7
:105540001D04811113C080911F0490912004A0912B
:105550002104B09122044196A11DB11D80931F0426
:1055600090932004A0932104B0932204BF91AF91A3
:105570009F918F910F900FBE0F901F9018959C01D7
:105580002A5F3F4FFC014281461301C012820196FF
:1055900082179307B9F708959C01FC0132969FEF9B
:1055A00080E04191461789F09F3F19F4411101C0F5
:1055B000982F8F5F8630A9F79F3F39F0F901E90FE7
:1055C000F11D97FDFA9562830895089520911B04BB
:1055D00030911C042817390771F090931C048093B4
:1055E0001B04E0911904F0911A04309721F0008413
:1055F000F185E02D09950895209117043091180444
:105600002817390771F09093180480931704E091DC
:105610001904F0911A04309721F00680F781E02DEB
:1056200009950895E0911904F0911A04309729F032
:105630000190F081E02D0995089580E00895CF93C1
:10564000DF93EC01EA85FB85309719F06C857D8549
:1056500009958B810E94372E8C810E943E2E0E94DC
:10566000B52E86E0FE0111928A95E9F7DF91CF9180
:105670000895CF93DF93EC018D8181FD15C0826089
:105680008D83909114048B81892B809314048C81D9
:105690000E94452E0E94B52EE885F985309721F0AD
:1056A0006C857D85CE010995109216041092150423
:1056B0008D8180FD03C0CE010E941F2BDF91CF9111
:1056C000089580E008959091A10192FF0DC0282FC8
:1056D0002871283019F4877F846006C0282F247130
:1056E000243011F48B7F886093FF0DC0282F287120
:1056F000283119F4877E846106C0282F2471243153
:1057000011F48B7E88612091A20120FF0DC0382FFB
:105710003871383019F4877F816006C0382F3171B5
:10572000313011F48E7F886021FF0DC0282F287141
:10573000283119F4877E816106C0282F217121311B
:1057400011F48E7E886194FD877E0895E3E2F1E096
:1057500068E271E030E041E021912F3FA1F0A22FFB
:10576000A295AF70B0E090968C9190E02F7002C03F
:10577000959587952A95E2F780FD02C0842F02C097
:1057800080E090E0382B440F6E177F0729F7809157
:105790007201831759F03093720181E080933105D3
:1057A0000E94612A9093300580932F0580913105E6
:1057B000811102C080E0089580912F0590913005FD
:1057C0000E94462A0597B0F38091720190918A0158
:1057D000981721F080938A0181E001C080E0109247
:1057E00031050895CF93DF938238910569F1B0F4C4
:1057F0008133910509F477C048F48932910509F4A1
:1058000069C08A32910509F473C092C0853391054D
:1058100009F45BC089339105B9F08AC0833E9105D4
:1058200091F138F4803E9105D1F0823E910531F13D
:105830007FC0863E9105D9F1873E9105E9F1843E0E
:10584000910509F075C028C02091A10120FD5BC021
:1058500021FD59C02091A20123FD61C069C0809142
:10586000A10180FD4AC08091A20180FF4CC08091BF
:10587000A10184FD4EC183EE90E04DC18091A10154
:1058800082FF3EC0F4CF8091A10182FD39C080919A
:10589000A20180FD38C0EBCF8091A20181FF39C009
:1058A0008091A10184FD35C187EE90E034C18091E3
:1058B000A10183FF2BC0F4CF8091A10183FD26C0FD
:1058C0008091A20181FD25C0EBCF8091A10185FDD2
:1058D00026C022C08091A10185FD1EC08091A20139
:1058E00083FF1DC00AC08091A10186FD1BC01DC0A1
:1058F0008091A10186FD19C015C089E390E00BC11C
:1059000082EE90E008C180EE90E005C186EE90E066
:1059100002C184EE90E0FFC085E390E0FCC089E224
:1059200090E0F9C08AE290E0F6C081E390E0F3C035
:10593000811531E5930708F061C0811520E59207D4
:10594000B0F0482F4F704695469520E2429FA00147
:105950001124982F937021E030E002C0220F331FF2
:105960009A95E2F7C9019D68842B952BD4C0883E97
:10597000910568F5803E910508F0CDC0883A910503
:10598000B8F4853A910548F0855AE82FF0E0E85CD4
:10599000FE4F808190E09064BEC08130910509F493
:1059A000B5C008F4B6C08430910508F4B2C0B3C0E5
:1059B0008F3B910508F0ADC0885AE82FF0E0EE0F5C
:1059C000FF1FE55CFE4F808191819464A4C0811526
:1059D00030E2930758F4811521E0920708F09BC04C
:1059E000803F910508F495C0906595C0811530E41D
:1059F000930708F48EC09F70906A8DC0811525E5CD
:105A0000920708F042C0811534E5930728F0982FDB
:105A10008827846F906A7FC0811523E59207B0F0D4
:105A20009C012370332741E050E002C0440F551F12
:105A30002A95E2F7282F2695269580E2289F900147
:105A40001124CA01822B932B9A6865C0811532E517
:105A5000930728F4982F8827816F906A5CC09C0177
:105A60002370332741E050E002C0440F551F2A95B0
:105A7000E2F7282F2695269580E2289F9001112491
:105A8000CA01822B932B9C6846C0EC01C11589E5A5
:105A9000D807B0F4C11528E5D20728F09C2F882735
:105AA000806F906A38C0C11536E5D30790F58C2F0A
:105AB0000E94632B8F7190E0982F882790622BC0F3
:105AC000C1158AE5D80790F48C2F8F700E94632B44
:105AD00094E0D695C7959A95E1F7CF70D0E0DC2F8A
